{
  "address": "0xC6098248Ee35f2a2a713d9bdD60AacFd6CdCc5f6",
  "abi": [
    {
      "inputs": [
        {
          "internalType": "address",
          "name": "priceFeedAddress",
          "type": "address"
        }
      ],
      "stateMutability": "nonpayable",
      "type": "constructor"
    },
    {
      "stateMutability": "payable",
      "type": "fallback"
    },
    {
      "inputs": [
        {
          "internalType": "address",
          "name": "",
          "type": "address"
        }
      ],
      "name": "addressToAmountFunded",
      "outputs": [
        {
          "internalType": "uint256",
          "name": "",
          "type": "uint256"
        }
      ],
      "stateMutability": "view",
      "type": "function"
    },
    {
      "inputs": [],
      "name": "fund",
      "outputs": [],
      "stateMutability": "payable",
      "type": "function"
    },
    {
      "inputs": [
        {
          "internalType": "uint256",
          "name": "",
          "type": "uint256"
        }
      ],
      "name": "funders",
      "outputs": [
        {
          "internalType": "address",
          "name": "",
          "type": "address"
        }
      ],
      "stateMutability": "view",
      "type": "function"
    },
    {
      "inputs": [],
      "name": "minimumUsd",
      "outputs": [
        {
          "internalType": "uint256",
          "name": "",
          "type": "uint256"
        }
      ],
      "stateMutability": "view",
      "type": "function"
    },
    {
      "inputs": [],
      "name": "owner",
      "outputs": [
        {
          "internalType": "address",
          "name": "",
          "type": "address"
        }
      ],
      "stateMutability": "view",
      "type": "function"
    },
    {
      "inputs": [],
      "name": "priceFeed",
      "outputs": [
        {
          "internalType": "contract AggregatorV3Interface",
          "name": "",
          "type": "address"
        }
      ],
      "stateMutability": "view",
      "type": "function"
    },
    {
      "inputs": [],
      "name": "withdraw",
      "outputs": [],
      "stateMutability": "nonpayable",
      "type": "function"
    },
    {
      "stateMutability": "payable",
      "type": "receive"
    }
  ],
  "transactionHash": "0xf861bc0adac508b5da601000fa5f6a6e9218b1caa4806b0660e4ff83651fce24",
  "args": [
    "0x639Fe6ab55C921f74e7fac1ee960C0B6293ba612"
  ],
  "numDeployments": 1,
  "solcInputHash": "a5cb0fa1d20878638716d5b41590a70b",
  "bytecode": "0x60806040526802b5e3af16b188000060005534801561001d57600080fd5b506040516200103b3803806200103b833981810160405281019061004191906100de565b33600160006101000a81548173ffffffffffffffffffffffffffffffffffffffff021916908373ffffffffffffffffffffffffffffffffffffffff16021790555080600460006101000a81548173ffffffffffffffffffffffffffffffffffffffff021916908373ffffffffffffffffffffffffffffffffffffffff16021790555050610159565b6000815190506100d881610142565b92915050565b6000602082840312156100f4576100f361013d565b5b6000610102848285016100c9565b91505092915050565b60006101168261011d565b9050919050565b600073ffffffffffffffffffffffffffffffffffffffff82169050919050565b600080fd5b61014b8161010b565b811461015657600080fd5b50565b610ed280620001696000396000f3fe6080604052600436106100745760003560e01c8063741bef1a1161004e578063741bef1a1461010c5780638da5cb5b14610137578063b60d428814610162578063dc0d3dff1461016c57610083565b8063098de8201461008d5780633ccfd60b146100b85780633e47d6f3146100cf57610083565b36610083576100816101a9565b005b61008b6101a9565b005b34801561009957600080fd5b506100a26102dd565b6040516100af91906109f7565b60405180910390f35b3480156100c457600080fd5b506100cd6102e3565b005b3480156100db57600080fd5b506100f660048036038101906100f191906107be565b61052f565b60405161010391906109f7565b60405180910390f35b34801561011857600080fd5b50610121610547565b60405161012e919061097c565b60405180910390f35b34801561014357600080fd5b5061014c61056d565b6040516101599190610961565b60405180910390f35b61016a6101a9565b005b34801561017857600080fd5b50610193600480360381019061018e91906107eb565b610593565b6040516101a09190610961565b60405180910390f35b6000546101e1600460009054906101000a900473ffffffffffffffffffffffffffffffffffffffff16346105d290919063ffffffff16565b1015610222576040517f08c379a000000000000000000000000000000000000000000000000000000000815260040161021990610997565b60405180910390fd5b6002339080600181540180825580915050600190039060005260206000200160009091909190916101000a81548173ffffffffffffffffffffffffffffffffffffffff021916908373ffffffffffffffffffffffffffffffffffffffff16021790555034600360003373ffffffffffffffffffffffffffffffffffffffff1673ffffffffffffffffffffffffffffffffffffffff16815260200190815260200160002060008282546102d49190610a2e565b92505081905550565b60005481565b600160009054906101000a900473ffffffffffffffffffffffffffffffffffffffff1673ffffffffffffffffffffffffffffffffffffffff163373ffffffffffffffffffffffffffffffffffffffff1614610373576040517f08c379a000000000000000000000000000000000000000000000000000000000815260040161036a906109d7565b60405180910390fd5b60005b60028054905081101561041f5760006002828154811061039957610398610d5f565b5b9060005260206000200160009054906101000a900473ffffffffffffffffffffffffffffffffffffffff1690506000600360008373ffffffffffffffffffffffffffffffffffffffff1673ffffffffffffffffffffffffffffffffffffffff1681526020019081526020016000208190555050808061041790610cb8565b915050610376565b50600067ffffffffffffffff81111561043b5761043a610d8e565b5b6040519080825280602002602001820160405280156104695781602001602082028036833780820191505090505b506002908051906020019061047f9291906106ae565b5060003373ffffffffffffffffffffffffffffffffffffffff16476040516104a69061094c565b60006040518083038185875af1925050503d80600081146104e3576040519150601f19603f3d011682016040523d82523d6000602084013e6104e8565b606091505b505090508061052c576040517f08c379a0000000000000000000000000000000000000000000000000000000008152600401610523906109b7565b60405180910390fd5b50565b60036020528060005260406000206000915090505481565b600460009054906101000a900473ffffffffffffffffffffffffffffffffffffffff1681565b600160009054906101000a900473ffffffffffffffffffffffffffffffffffffffff1681565b600281815481106105a357600080fd5b906000526020600020016000915054906101000a900473ffffffffffffffffffffffffffffffffffffffff1681565b6000806105de8361060e565b90506000670de0b6b3a764000085836105f79190610bcc565b6106019190610a84565b9050809250505092915050565b6000808273ffffffffffffffffffffffffffffffffffffffff1663feaf968c6040518163ffffffff1660e01b815260040160a06040518083038186803b15801561065757600080fd5b505afa15801561066b573d6000803e3d6000fd5b505050506040513d601f19601f8201168201806040525081019061068f9190610818565b5050509150506402540be400816106a69190610ab5565b915050919050565b828054828255906000526020600020908101928215610727579160200282015b828111156107265782518260006101000a81548173ffffffffffffffffffffffffffffffffffffffff021916908373ffffffffffffffffffffffffffffffffffffffff160217905550916020019190600101906106ce565b5b5090506107349190610738565b5090565b5b80821115610751576000816000905550600101610739565b5090565b60008135905061076481610e40565b92915050565b60008151905061077981610e57565b92915050565b60008135905061078e81610e6e565b92915050565b6000815190506107a381610e6e565b92915050565b6000815190506107b881610e85565b92915050565b6000602082840312156107d4576107d3610dbd565b5b60006107e284828501610755565b91505092915050565b60006020828403121561080157610800610dbd565b5b600061080f8482850161077f565b91505092915050565b600080600080600060a0868803121561083457610833610dbd565b5b6000610842888289016107a9565b95505060206108538882890161076a565b945050604061086488828901610794565b935050606061087588828901610794565b9250506080610886888289016107a9565b9150509295509295909350565b61089c81610c26565b82525050565b6108ab81610c82565b82525050565b60006108be600083610a12565b91506108c982610dc2565b600082019050919050565b60006108e1601383610a1d565b91506108ec82610dc5565b602082019050919050565b6000610904600c83610a1d565b915061090f82610dee565b602082019050919050565b6000610927601483610a1d565b915061093282610e17565b602082019050919050565b61094681610c62565b82525050565b6000610957826108b1565b9150819050919050565b60006020820190506109766000830184610893565b92915050565b600060208201905061099160008301846108a2565b92915050565b600060208201905081810360008301526109b0816108d4565b9050919050565b600060208201905081810360008301526109d0816108f7565b9050919050565b600060208201905081810360008301526109f08161091a565b9050919050565b6000602082019050610a0c600083018461093d565b92915050565b600081905092915050565b600082825260208201905092915050565b6000610a3982610c62565b9150610a4483610c62565b9250827fffffffffffffffffffffffffffffffffffffffffffffffffffffffffffffffff03821115610a7957610a78610d01565b5b828201905092915050565b6000610a8f82610c62565b9150610a9a83610c62565b925082610aaa57610aa9610d30565b5b828204905092915050565b6000610ac082610c38565b9150610acb83610c38565b9250827f7fffffffffffffffffffffffffffffffffffffffffffffffffffffffffffffff0482116000841360008413161615610b0a57610b09610d01565b5b817f80000000000000000000000000000000000000000000000000000000000000000583126000841260008413161615610b4757610b46610d01565b5b827f80000000000000000000000000000000000000000000000000000000000000000582126000841360008412161615610b8457610b83610d01565b5b827f7fffffffffffffffffffffffffffffffffffffffffffffffffffffffffffffff0582126000841260008412161615610bc157610bc0610d01565b5b828202905092915050565b6000610bd782610c62565b9150610be283610c62565b9250817fffffffffffffffffffffffffffffffffffffffffffffffffffffffffffffffff0483118215151615610c1b57610c1a610d01565b5b828202905092915050565b6000610c3182610c42565b9050919050565b6000819050919050565b600073ffffffffffffffffffffffffffffffffffffffff82169050919050565b6000819050919050565b600069ffffffffffffffffffff82169050919050565b6000610c8d82610c94565b9050919050565b6000610c9f82610ca6565b9050919050565b6000610cb182610c42565b9050919050565b6000610cc382610c62565b91507fffffffffffffffffffffffffffffffffffffffffffffffffffffffffffffffff821415610cf657610cf5610d01565b5b600182019050919050565b7f4e487b7100000000000000000000000000000000000000000000000000000000600052601160045260246000fd5b7f4e487b7100000000000000000000000000000000000000000000000000000000600052601260045260246000fd5b7f4e487b7100000000000000000000000000000000000000000000000000000000600052603260045260246000fd5b7f4e487b7100000000000000000000000000000000000000000000000000000000600052604160045260246000fd5b600080fd5b50565b7f4469646e27742073656e6420656e6f7567682100000000000000000000000000600082015250565b7f43616c6c206661696c6564210000000000000000000000000000000000000000600082015250565b7f53656e646572206973206e6f74206f776e657221000000000000000000000000600082015250565b610e4981610c26565b8114610e5457600080fd5b50565b610e6081610c38565b8114610e6b57600080fd5b50565b610e7781610c62565b8114610e8257600080fd5b50565b610e8e81610c6c565b8114610e9957600080fd5b5056fea26469706673582212209db8e0a9f4b234ede6b5efe1762335174c0f1ddb7a50bc77aa52260a9674cd1864736f6c63430008070033",
  "devdoc": {
    "kind": "dev",
    "methods": {},
    "version": 1
  },
  "userdoc": {
    "kind": "user",
    "methods": {},
    "version": 1
  },
  "storageLayout": {
    "storage": [
      {
        "astId": 56,
        "contract": "contracts/FundMe.sol:FundMe",
        "label": "minimumUsd",
        "offset": 0,
        "slot": "0",
        "type": "t_uint256"
      },
      {
        "astId": 58,
        "contract": "contracts/FundMe.sol:FundMe",
        "label": "owner",
        "offset": 0,
        "slot": "1",
        "type": "t_address"
      },
      {
        "astId": 61,
        "contract": "contracts/FundMe.sol:FundMe",
        "label": "funders",
        "offset": 0,
        "slot": "2",
        "type": "t_array(t_address)dyn_storage"
      },
      {
        "astId": 65,
        "contract": "contracts/FundMe.sol:FundMe",
        "label": "addressToAmountFunded",
        "offset": 0,
        "slot": "3",
        "type": "t_mapping(t_address,t_uint256)"
      },
      {
        "astId": 68,
        "contract": "contracts/FundMe.sol:FundMe",
        "label": "priceFeed",
        "offset": 0,
        "slot": "4",
        "type": "t_contract(AggregatorV3Interface)45"
      }
    ],
    "types": {
      "t_address": {
        "encoding": "inplace",
        "label": "address",
        "numberOfBytes": "20"
      },
      "t_array(t_address)dyn_storage": {
        "base": "t_address",
        "encoding": "dynamic_array",
        "label": "address[]",
        "numberOfBytes": "32"
      },
      "t_contract(AggregatorV3Interface)45": {
        "encoding": "inplace",
        "label": "contract AggregatorV3Interface",
        "numberOfBytes": "20"
      },
      "t_mapping(t_address,t_uint256)": {
        "encoding": "mapping",
        "key": "t_address",
        "label": "mapping(address => uint256)",
        "numberOfBytes": "32",
        "value": "t_uint256"
      },
      "t_uint256": {
        "encoding": "inplace",
        "label": "uint256",
        "numberOfBytes": "32"
      }
    }
  }
}